{
  "_format": "hh-sol-artifact-1",
  "contractName": "fiatLux",
  "sourceName": "contracts/fiatLux.sol",
  "abi": [
    {
      "inputs": [],
      "stateMutability": "nonpayable",
      "type": "constructor"
    },
    {
      "inputs": [],
      "name": "ApprovalCallerNotOwnerNorApproved",
      "type": "error"
    },
    {
      "inputs": [],
      "name": "ApprovalQueryForNonexistentToken",
      "type": "error"
    },
    {
      "inputs": [],
      "name": "BalanceQueryForZeroAddress",
      "type": "error"
    },
    {
      "inputs": [],
      "name": "MintERC2309QuantityExceedsLimit",
      "type": "error"
    },
    {
      "inputs": [],
      "name": "MintToZeroAddress",
      "type": "error"
    },
    {
      "inputs": [],
      "name": "MintZeroQuantity",
      "type": "error"
    },
    {
      "inputs": [],
      "name": "OwnerQueryForNonexistentToken",
      "type": "error"
    },
    {
      "inputs": [],
      "name": "OwnershipNotInitializedForExtraData",
      "type": "error"
    },
    {
      "inputs": [],
      "name": "TransferCallerNotOwnerNorApproved",
      "type": "error"
    },
    {
      "inputs": [],
      "name": "TransferFromIncorrectOwner",
      "type": "error"
    },
    {
      "inputs": [],
      "name": "TransferToNonERC721ReceiverImplementer",
      "type": "error"
    },
    {
      "inputs": [],
      "name": "TransferToZeroAddress",
      "type": "error"
    },
    {
      "inputs": [],
      "name": "URIQueryForNonexistentToken",
      "type": "error"
    },
    {
      "anonymous": false,
      "inputs": [
        {
          "indexed": true,
          "internalType": "address",
          "name": "owner",
          "type": "address"
        },
        {
          "indexed": true,
          "internalType": "address",
          "name": "approved",
          "type": "address"
        },
        {
          "indexed": true,
          "internalType": "uint256",
          "name": "tokenId",
          "type": "uint256"
        }
      ],
      "name": "Approval",
      "type": "event"
    },
    {
      "anonymous": false,
      "inputs": [
        {
          "indexed": true,
          "internalType": "address",
          "name": "owner",
          "type": "address"
        },
        {
          "indexed": true,
          "internalType": "address",
          "name": "operator",
          "type": "address"
        },
        {
          "indexed": false,
          "internalType": "bool",
          "name": "approved",
          "type": "bool"
        }
      ],
      "name": "ApprovalForAll",
      "type": "event"
    },
    {
      "anonymous": false,
      "inputs": [
        {
          "indexed": true,
          "internalType": "uint256",
          "name": "fromTokenId",
          "type": "uint256"
        },
        {
          "indexed": false,
          "internalType": "uint256",
          "name": "toTokenId",
          "type": "uint256"
        },
        {
          "indexed": true,
          "internalType": "address",
          "name": "from",
          "type": "address"
        },
        {
          "indexed": true,
          "internalType": "address",
          "name": "to",
          "type": "address"
        }
      ],
      "name": "ConsecutiveTransfer",
      "type": "event"
    },
    {
      "anonymous": false,
      "inputs": [
        {
          "indexed": true,
          "internalType": "address",
          "name": "previousOwner",
          "type": "address"
        },
        {
          "indexed": true,
          "internalType": "address",
          "name": "newOwner",
          "type": "address"
        }
      ],
      "name": "OwnershipTransferred",
      "type": "event"
    },
    {
      "anonymous": false,
      "inputs": [
        {
          "indexed": true,
          "internalType": "address",
          "name": "from",
          "type": "address"
        },
        {
          "indexed": true,
          "internalType": "address",
          "name": "to",
          "type": "address"
        },
        {
          "indexed": true,
          "internalType": "uint256",
          "name": "tokenId",
          "type": "uint256"
        }
      ],
      "name": "Transfer",
      "type": "event"
    },
    {
      "inputs": [],
      "name": "BASE_URI",
      "outputs": [
        {
          "internalType": "string",
          "name": "",
          "type": "string"
        }
      ],
      "stateMutability": "view",
      "type": "function"
    },
    {
      "inputs": [],
      "name": "IS_PAUSED",
      "outputs": [
        {
          "internalType": "bool",
          "name": "",
          "type": "bool"
        }
      ],
      "stateMutability": "view",
      "type": "function"
    },
    {
      "inputs": [],
      "name": "MAX_NFT_QUANTITY",
      "outputs": [
        {
          "internalType": "uint256",
          "name": "",
          "type": "uint256"
        }
      ],
      "stateMutability": "view",
      "type": "function"
    },
    {
      "inputs": [],
      "name": "NFT_PRICE",
      "outputs": [
        {
          "internalType": "uint256",
          "name": "",
          "type": "uint256"
        }
      ],
      "stateMutability": "view",
      "type": "function"
    },
    {
      "inputs": [
        {
          "internalType": "address",
          "name": "to",
          "type": "address"
        },
        {
          "internalType": "uint256",
          "name": "tokenId",
          "type": "uint256"
        }
      ],
      "name": "approve",
      "outputs": [],
      "stateMutability": "payable",
      "type": "function"
    },
    {
      "inputs": [
        {
          "internalType": "address",
          "name": "owner",
          "type": "address"
        }
      ],
      "name": "balanceOf",
      "outputs": [
        {
          "internalType": "uint256",
          "name": "",
          "type": "uint256"
        }
      ],
      "stateMutability": "view",
      "type": "function"
    },
    {
      "inputs": [
        {
          "internalType": "uint256",
          "name": "tokenId",
          "type": "uint256"
        }
      ],
      "name": "getApproved",
      "outputs": [
        {
          "internalType": "address",
          "name": "",
          "type": "address"
        }
      ],
      "stateMutability": "view",
      "type": "function"
    },
    {
      "inputs": [
        {
          "internalType": "address",
          "name": "owner",
          "type": "address"
        },
        {
          "internalType": "address",
          "name": "operator",
          "type": "address"
        }
      ],
      "name": "isApprovedForAll",
      "outputs": [
        {
          "internalType": "bool",
          "name": "",
          "type": "bool"
        }
      ],
      "stateMutability": "view",
      "type": "function"
    },
    {
      "inputs": [
        {
          "internalType": "uint8",
          "name": "numberOfTokens",
          "type": "uint8"
        }
      ],
      "name": "mintNFT",
      "outputs": [],
      "stateMutability": "payable",
      "type": "function"
    },
    {
      "inputs": [],
      "name": "name",
      "outputs": [
        {
          "internalType": "string",
          "name": "",
          "type": "string"
        }
      ],
      "stateMutability": "view",
      "type": "function"
    },
    {
      "inputs": [],
      "name": "owner",
      "outputs": [
        {
          "internalType": "address",
          "name": "",
          "type": "address"
        }
      ],
      "stateMutability": "view",
      "type": "function"
    },
    {
      "inputs": [
        {
          "internalType": "uint256",
          "name": "tokenId",
          "type": "uint256"
        }
      ],
      "name": "ownerOf",
      "outputs": [
        {
          "internalType": "address",
          "name": "",
          "type": "address"
        }
      ],
      "stateMutability": "view",
      "type": "function"
    },
    {
      "inputs": [],
      "name": "renounceOwnership",
      "outputs": [],
      "stateMutability": "nonpayable",
      "type": "function"
    },
    {
      "inputs": [
        {
          "internalType": "address",
          "name": "from",
          "type": "address"
        },
        {
          "internalType": "address",
          "name": "to",
          "type": "address"
        },
        {
          "internalType": "uint256",
          "name": "tokenId",
          "type": "uint256"
        }
      ],
      "name": "safeTransferFrom",
      "outputs": [],
      "stateMutability": "payable",
      "type": "function"
    },
    {
      "inputs": [
        {
          "internalType": "address",
          "name": "from",
          "type": "address"
        },
        {
          "internalType": "address",
          "name": "to",
          "type": "address"
        },
        {
          "internalType": "uint256",
          "name": "tokenId",
          "type": "uint256"
        },
        {
          "internalType": "bytes",
          "name": "_data",
          "type": "bytes"
        }
      ],
      "name": "safeTransferFrom",
      "outputs": [],
      "stateMutability": "payable",
      "type": "function"
    },
    {
      "inputs": [
        {
          "internalType": "address",
          "name": "operator",
          "type": "address"
        },
        {
          "internalType": "bool",
          "name": "approved",
          "type": "bool"
        }
      ],
      "name": "setApprovalForAll",
      "outputs": [],
      "stateMutability": "nonpayable",
      "type": "function"
    },
    {
      "inputs": [
        {
          "internalType": "string",
          "name": "_baseURI",
          "type": "string"
        }
      ],
      "name": "setBaseURI",
      "outputs": [],
      "stateMutability": "nonpayable",
      "type": "function"
    },
    {
      "inputs": [
        {
          "internalType": "uint256",
          "name": "_nftPrice",
          "type": "uint256"
        }
      ],
      "name": "setNFTPrice",
      "outputs": [],
      "stateMutability": "nonpayable",
      "type": "function"
    },
    {
      "inputs": [
        {
          "internalType": "bytes4",
          "name": "interfaceId",
          "type": "bytes4"
        }
      ],
      "name": "supportsInterface",
      "outputs": [
        {
          "internalType": "bool",
          "name": "",
          "type": "bool"
        }
      ],
      "stateMutability": "view",
      "type": "function"
    },
    {
      "inputs": [],
      "name": "symbol",
      "outputs": [
        {
          "internalType": "string",
          "name": "",
          "type": "string"
        }
      ],
      "stateMutability": "view",
      "type": "function"
    },
    {
      "inputs": [],
      "name": "togglePaused",
      "outputs": [],
      "stateMutability": "nonpayable",
      "type": "function"
    },
    {
      "inputs": [
        {
          "internalType": "uint256",
          "name": "_tokenId",
          "type": "uint256"
        }
      ],
      "name": "tokenURI",
      "outputs": [
        {
          "internalType": "string",
          "name": "",
          "type": "string"
        }
      ],
      "stateMutability": "view",
      "type": "function"
    },
    {
      "inputs": [
        {
          "internalType": "address",
          "name": "addr",
          "type": "address"
        },
        {
          "internalType": "uint8",
          "name": "startId",
          "type": "uint8"
        },
        {
          "internalType": "uint8",
          "name": "endId",
          "type": "uint8"
        }
      ],
      "name": "tokensOfOwner",
      "outputs": [
        {
          "internalType": "uint8[]",
          "name": "",
          "type": "uint8[]"
        }
      ],
      "stateMutability": "view",
      "type": "function"
    },
    {
      "inputs": [],
      "name": "totalSupply",
      "outputs": [
        {
          "internalType": "uint256",
          "name": "",
          "type": "uint256"
        }
      ],
      "stateMutability": "view",
      "type": "function"
    },
    {
      "inputs": [
        {
          "internalType": "address",
          "name": "from",
          "type": "address"
        },
        {
          "internalType": "address",
          "name": "to",
          "type": "address"
        },
        {
          "internalType": "uint256",
          "name": "tokenId",
          "type": "uint256"
        }
      ],
      "name": "transferFrom",
      "outputs": [],
      "stateMutability": "payable",
      "type": "function"
    },
    {
      "inputs": [
        {
          "internalType": "address",
          "name": "newOwner",
          "type": "address"
        }
      ],
      "name": "transferOwnership",
      "outputs": [],
      "stateMutability": "nonpayable",
      "type": "function"
    },
    {
      "inputs": [],
      "name": "withdraw",
      "outputs": [],
      "stateMutability": "nonpayable",
      "type": "function"
    }
  ],
  "bytecode": "0x60806040526103e8600a55670de0b6b3a7640000600b556000600c60006101000a81548160ff0219169083151502179055503480156200003e57600080fd5b506040518060400160405280601181526020017f46697265205265636f76657279204e46540000000000000000000000000000008152506040518060400160405280600481526020017f4649524500000000000000000000000000000000000000000000000000000000815250620000cb620000bf6200012260201b60201c565b6200012a60201b60201c565b600180819055508160049080519060200190620000ea929190620001f3565b50806005908051906020019062000103929190620001f3565b5062000114620001ee60201b60201c565b600281905550505062000308565b600033905090565b60008060009054906101000a900473ffffffffffffffffffffffffffffffffffffffff169050816000806101000a81548173ffffffffffffffffffffffffffffffffffffffff021916908373ffffffffffffffffffffffffffffffffffffffff1602179055508173ffffffffffffffffffffffffffffffffffffffff168173ffffffffffffffffffffffffffffffffffffffff167f8be0079c531659141344cd1fd0a4f28419497f9722a3daafe3b4186f6b6457e060405160405180910390a35050565b600090565b8280546200020190620002a3565b90600052602060002090601f01602090048101928262000225576000855562000271565b82601f106200024057805160ff191683800117855562000271565b8280016001018555821562000271579182015b828111156200027057825182559160200191906001019062000253565b5b50905062000280919062000284565b5090565b5b808211156200029f57600081600090555060010162000285565b5090565b60006002820490506001821680620002bc57607f821691505b60208210811415620002d357620002d2620002d9565b5b50919050565b7f4e487b7100000000000000000000000000000000000000000000000000000000600052602260045260246000fd5b612e2080620003186000396000f3fe60806040526004361061019c5760003560e01c80636352211e116100ec578063a22cb4651161008a578063dbddb26a11610064578063dbddb26a1461056c578063e985e9c514610597578063f2fde38b146105d4578063fa77983e146105fd5761019c565b8063a22cb465146104ea578063b88d4fde14610513578063c87b56dd1461052f5761019c565b8063715018a6116100c6578063715018a61461045457806381530b681461046b5780638da5cb5b1461049457806395d89b41146104bf5761019c565b80636352211e146103af578063676dd563146103ec57806370a08231146104175761019c565b806318160ddd116101595780633ccfd60b116101335780633ccfd60b1461031657806342842e0e1461032d5780634d9c5e581461034957806355f804b3146103865761019c565b806318160ddd146102b857806323b872dd146102e357806336566f06146102ff5761019c565b806301ffc9a7146101a1578063068afd4d146101de57806306fdde0314610209578063081812fc14610234578063095ea7b31461027157806310baa74c1461028d575b600080fd5b3480156101ad57600080fd5b506101c860048036038101906101c391906121f8565b610619565b6040516101d59190612620565b60405180910390f35b3480156101ea57600080fd5b506101f36106ab565b604051610200919061279d565b60405180910390f35b34801561021557600080fd5b5061021e6106b1565b60405161022b919061263b565b60405180910390f35b34801561024057600080fd5b5061025b6004803603810190610256919061228b565b610743565b6040516102689190612597565b60405180910390f35b61028b6004803603810190610286919061216d565b6107c2565b005b34801561029957600080fd5b506102a2610906565b6040516102af9190612620565b60405180910390f35b3480156102c457600080fd5b506102cd610919565b6040516102da919061279d565b60405180910390f35b6102fd60048036038101906102f89190612067565b610930565b005b34801561030b57600080fd5b50610314610c55565b005b34801561032257600080fd5b5061032b610c89565b005b61034760048036038101906103429190612067565b610dde565b005b34801561035557600080fd5b50610370600480360381019061036b91906121a9565b610dfe565b60405161037d91906125fe565b60405180910390f35b34801561039257600080fd5b506103ad60048036038101906103a8919061224a565b610fe7565b005b3480156103bb57600080fd5b506103d660048036038101906103d1919061228b565b611009565b6040516103e39190612597565b60405180910390f35b3480156103f857600080fd5b5061040161101b565b60405161040e919061279d565b60405180910390f35b34801561042357600080fd5b5061043e60048036038101906104399190612002565b611021565b60405161044b919061279d565b60405180910390f35b34801561046057600080fd5b506104696110da565b005b34801561047757600080fd5b50610492600480360381019061048d919061228b565b6110ee565b005b3480156104a057600080fd5b506104a9611100565b6040516104b69190612597565b60405180910390f35b3480156104cb57600080fd5b506104d4611129565b6040516104e1919061263b565b60405180910390f35b3480156104f657600080fd5b50610511600480360381019061050c9190612131565b6111bb565b005b61052d600480360381019061052891906120b6565b6112c6565b005b34801561053b57600080fd5b506105566004803603810190610551919061228b565b611339565b604051610563919061263b565b60405180910390f35b34801561057857600080fd5b506105816113a3565b60405161058e919061263b565b60405180910390f35b3480156105a357600080fd5b506105be60048036038101906105b9919061202b565b611431565b6040516105cb9190612620565b60405180910390f35b3480156105e057600080fd5b506105fb60048036038101906105f69190612002565b6114c5565b005b610617600480360381019061061291906122b4565b611549565b005b60006301ffc9a760e01b827bffffffffffffffffffffffffffffffffffffffffffffffffffffffff1916148061067457506380ac58cd60e01b827bffffffffffffffffffffffffffffffffffffffffffffffffffffffff1916145b806106a45750635b5e139f60e01b827bffffffffffffffffffffffffffffffffffffffffffffffffffffffff1916145b9050919050565b600a5481565b6060600480546106c090612a2e565b80601f01602080910402602001604051908101604052809291908181526020018280546106ec90612a2e565b80156107395780601f1061070e57610100808354040283529160200191610739565b820191906000526020600020905b81548152906001019060200180831161071c57829003601f168201915b5050505050905090565b600061074e826116d0565b610784576040517fcf4700e400000000000000000000000000000000000000000000000000000000815260040160405180910390fd5b6008600083815260200190815260200160002060000160009054906101000a900473ffffffffffffffffffffffffffffffffffffffff169050919050565b60006107cd82611009565b90508073ffffffffffffffffffffffffffffffffffffffff166107ee61172f565b73ffffffffffffffffffffffffffffffffffffffff16146108515761081a8161081561172f565b611431565b610850576040517fcfb3b94200000000000000000000000000000000000000000000000000000000815260040160405180910390fd5b5b826008600084815260200190815260200160002060000160006101000a81548173ffffffffffffffffffffffffffffffffffffffff021916908373ffffffffffffffffffffffffffffffffffffffff160217905550818373ffffffffffffffffffffffffffffffffffffffff168273ffffffffffffffffffffffffffffffffffffffff167f8c5be1e5ebec7d5bd14f71427d1e84f3dd0314c0f7b2291e5b200ac8c7c3b92560405160405180910390a4505050565b600c60009054906101000a900460ff1681565b6000610923611737565b6003546002540303905090565b600061093b8261173c565b90508373ffffffffffffffffffffffffffffffffffffffff168173ffffffffffffffffffffffffffffffffffffffff16146109a2576040517fa114810000000000000000000000000000000000000000000000000000000000815260040160405180910390fd5b6000806109ae8461180a565b915091506109c481876109bf61172f565b611831565b610a10576109d9866109d461172f565b611431565b610a0f576040517f59c896be00000000000000000000000000000000000000000000000000000000815260040160405180910390fd5b5b600073ffffffffffffffffffffffffffffffffffffffff168573ffffffffffffffffffffffffffffffffffffffff161415610a77576040517fea553b3400000000000000000000000000000000000000000000000000000000815260040160405180910390fd5b610a848686866001611875565b8015610a8f57600082555b600760008773ffffffffffffffffffffffffffffffffffffffff1673ffffffffffffffffffffffffffffffffffffffff168152602001908152602001600020600081546001900391905081905550600760008673ffffffffffffffffffffffffffffffffffffffff1673ffffffffffffffffffffffffffffffffffffffff1681526020019081526020016000206000815460010191905081905550610b5d85610b3988888761187b565b7c0200000000000000000000000000000000000000000000000000000000176118a3565b600660008681526020019081526020016000208190555060007c020000000000000000000000000000000000000000000000000000000084161415610be5576000600185019050600060066000838152602001908152602001600020541415610be3576002548114610be2578360066000838152602001908152602001600020819055505b5b505b838573ffffffffffffffffffffffffffffffffffffffff168773ffffffffffffffffffffffffffffffffffffffff167fddf252ad1be2c89b69c2b068fc378daa952ba7f163c4a11628f55a4df523b3ef60405160405180910390a4610c4d86868660016118ce565b505050505050565b610c5d6118d4565b600c60009054906101000a900460ff1615600c60006101000a81548160ff021916908315150217905550565b610c916118d4565b60026001541415610cd7576040517f08c379a0000000000000000000000000000000000000000000000000000000008152600401610cce9061277d565b60405180910390fd5b6002600181905550600047905060008111610d27576040517f08c379a0000000000000000000000000000000000000000000000000000000008152600401610d1e906126bd565b60405180910390fd5b60003373ffffffffffffffffffffffffffffffffffffffff1682604051610d4d90612582565b60006040518083038185875af1925050503d8060008114610d8a576040519150601f19603f3d011682016040523d82523d6000602084013e610d8f565b606091505b5050905080610dd3576040517f08c379a0000000000000000000000000000000000000000000000000000000008152600401610dca9061265d565b60405180910390fd5b505060018081905550565b610df9838383604051806020016040528060008152506112c6565b505050565b60606000610e0b85611021565b90506000811415610e8e57600067ffffffffffffffff811115610e57577f4e487b7100000000000000000000000000000000000000000000000000000000600052604160045260246000fd5b604051908082528060200260200182016040528015610e855781602001602082028036833780820191505090505b50915050610fe0565b60008167ffffffffffffffff811115610ed0577f4e487b7100000000000000000000000000000000000000000000000000000000600052604160045260246000fd5b604051908082528060200260200182016040528015610efe5781602001602082028036833780820191505090505b5090506000808690505b8560ff168160ff161015610fd857838260ff161415610f2657610fd8565b8773ffffffffffffffffffffffffffffffffffffffff16610f498260ff16611009565b73ffffffffffffffffffffffffffffffffffffffff161415610fc55780838360ff1681518110610fa2577f4e487b7100000000000000000000000000000000000000000000000000000000600052603260045260246000fd5b602002602001019060ff16908160ff16815250508180610fc190612a91565b9250505b8080610fd090612a91565b915050610f08565b508193505050505b9392505050565b610fef6118d4565b80600d9080519060200190611005929190611e11565b5050565b60006110148261173c565b9050919050565b600b5481565b60008073ffffffffffffffffffffffffffffffffffffffff168273ffffffffffffffffffffffffffffffffffffffff161415611089576040517f8f4eb60400000000000000000000000000000000000000000000000000000000815260040160405180910390fd5b67ffffffffffffffff600760008473ffffffffffffffffffffffffffffffffffffffff1673ffffffffffffffffffffffffffffffffffffffff16815260200190815260200160002054169050919050565b6110e26118d4565b6110ec6000611952565b565b6110f66118d4565b80600b8190555050565b60008060009054906101000a900473ffffffffffffffffffffffffffffffffffffffff16905090565b60606005805461113890612a2e565b80601f016020809104026020016040519081016040528092919081815260200182805461116490612a2e565b80156111b15780601f10611186576101008083540402835291602001916111b1565b820191906000526020600020905b81548152906001019060200180831161119457829003601f168201915b5050505050905090565b80600960006111c861172f565b73ffffffffffffffffffffffffffffffffffffffff1673ffffffffffffffffffffffffffffffffffffffff16815260200190815260200160002060008473ffffffffffffffffffffffffffffffffffffffff1673ffffffffffffffffffffffffffffffffffffffff16815260200190815260200160002060006101000a81548160ff0219169083151502179055508173ffffffffffffffffffffffffffffffffffffffff1661127561172f565b73ffffffffffffffffffffffffffffffffffffffff167f17307eab39ab6107e8899845ad3d59bd9653f200f220920489ca2b5937696c31836040516112ba9190612620565b60405180910390a35050565b6112d1848484610930565b60008373ffffffffffffffffffffffffffffffffffffffff163b14611333576112fc84848484611a16565b611332576040517fd1a57ed600000000000000000000000000000000000000000000000000000000815260040160405180910390fd5b5b50505050565b6060611344826116d0565b611383576040517f08c379a000000000000000000000000000000000000000000000000000000000815260040161137a906126dd565b60405180910390fd5b604051806060016040528060358152602001612db6603591399050919050565b600d80546113b090612a2e565b80601f01602080910402602001604051908101604052809291908181526020018280546113dc90612a2e565b80156114295780601f106113fe57610100808354040283529160200191611429565b820191906000526020600020905b81548152906001019060200180831161140c57829003601f168201915b505050505081565b6000600960008473ffffffffffffffffffffffffffffffffffffffff1673ffffffffffffffffffffffffffffffffffffffff16815260200190815260200160002060008373ffffffffffffffffffffffffffffffffffffffff1673ffffffffffffffffffffffffffffffffffffffff16815260200190815260200160002060009054906101000a900460ff16905092915050565b6114cd6118d4565b600073ffffffffffffffffffffffffffffffffffffffff168173ffffffffffffffffffffffffffffffffffffffff16141561153d576040517f08c379a00000000000000000000000000000000000000000000000000000000081526004016115349061269d565b60405180910390fd5b61154681611952565b50565b3373ffffffffffffffffffffffffffffffffffffffff163273ffffffffffffffffffffffffffffffffffffffff16146115b7576040517f08c379a00000000000000000000000000000000000000000000000000000000081526004016115ae9061273d565b60405180910390fd5b60001515600c60009054906101000a900460ff1615151461160d576040517f08c379a0000000000000000000000000000000000000000000000000000000008152600401611604906126fd565b60405180910390fd5b6000611617610919565b9050600a548260ff168261162b91906128bb565b111561166c576040517f08c379a00000000000000000000000000000000000000000000000000000000081526004016116639061267d565b60405180910390fd5b600b548260ff1661167d9190612911565b3410156116bf576040517f08c379a00000000000000000000000000000000000000000000000000000000081526004016116b69061271d565b60405180910390fd5b6116cc338360ff16611b76565b5050565b6000816116db611737565b111580156116ea575060025482105b8015611728575060007c0100000000000000000000000000000000000000000000000000000000600660008581526020019081526020016000205416145b9050919050565b600033905090565b600090565b6000808290508061174b611737565b116117d3576002548110156117d25760006006600083815260200190815260200160002054905060007c0100000000000000000000000000000000000000000000000000000000821614156117d0575b60008114156117c657600660008360019003935083815260200190815260200160002054905061179b565b8092505050611805565b505b5b6040517fdf2d9b4200000000000000000000000000000000000000000000000000000000815260040160405180910390fd5b919050565b60008060006008600085815260200190815260200160002090508092508254915050915091565b600073ffffffffffffffffffffffffffffffffffffffff8316925073ffffffffffffffffffffffffffffffffffffffff821691508382148383141790509392505050565b50505050565b60008060e883901c905060e8611892868684611b94565b62ffffff16901b9150509392505050565b600073ffffffffffffffffffffffffffffffffffffffff83169250814260a01b178317905092915050565b50505050565b6118dc611b9d565b73ffffffffffffffffffffffffffffffffffffffff166118fa611100565b73ffffffffffffffffffffffffffffffffffffffff1614611950576040517f08c379a00000000000000000000000000000000000000000000000000000000081526004016119479061275d565b60405180910390fd5b565b60008060009054906101000a900473ffffffffffffffffffffffffffffffffffffffff169050816000806101000a81548173ffffffffffffffffffffffffffffffffffffffff021916908373ffffffffffffffffffffffffffffffffffffffff1602179055508173ffffffffffffffffffffffffffffffffffffffff168173ffffffffffffffffffffffffffffffffffffffff167f8be0079c531659141344cd1fd0a4f28419497f9722a3daafe3b4186f6b6457e060405160405180910390a35050565b60008373ffffffffffffffffffffffffffffffffffffffff1663150b7a02611a3c61172f565b8786866040518563ffffffff1660e01b8152600401611a5e94939291906125b2565b602060405180830381600087803b158015611a7857600080fd5b505af1925050508015611aa957506040513d601f19601f82011682018060405250810190611aa69190612221565b60015b611b23573d8060008114611ad9576040519150601f19603f3d011682016040523d82523d6000602084013e611ade565b606091505b50600081511415611b1b576040517fd1a57ed600000000000000000000000000000000000000000000000000000000815260040160405180910390fd5b805181602001fd5b63150b7a0260e01b7bffffffffffffffffffffffffffffffffffffffffffffffffffffffff1916817bffffffffffffffffffffffffffffffffffffffffffffffffffffffff191614915050949350505050565b611b90828260405180602001604052806000815250611ba5565b5050565b60009392505050565b600033905090565b611baf8383611c43565b60008373ffffffffffffffffffffffffffffffffffffffff163b14611c3e5760006002549050600083820390505b611bf06000868380600101945086611a16565b611c26576040517fd1a57ed600000000000000000000000000000000000000000000000000000000815260040160405180910390fd5b818110611bdd578160025414611c3b57600080fd5b50505b505050565b600060025490506000821415611c85576040517fb562e8dd00000000000000000000000000000000000000000000000000000000815260040160405180910390fd5b611c926000848385611875565b600160406001901b178202600760008573ffffffffffffffffffffffffffffffffffffffff1673ffffffffffffffffffffffffffffffffffffffff16815260200190815260200160002060008282540192505081905550611d0983611cfa600086600061187b565b611d0385611e01565b176118a3565b6006600083815260200190815260200160002081905550600080838301905073ffffffffffffffffffffffffffffffffffffffff85169150828260007fddf252ad1be2c89b69c2b068fc378daa952ba7f163c4a11628f55a4df523b3ef600080a4600183015b818114611daa57808360007fddf252ad1be2c89b69c2b068fc378daa952ba7f163c4a11628f55a4df523b3ef600080a4600181019050611d6f565b506000821415611de6576040517f2e07630000000000000000000000000000000000000000000000000000000000815260040160405180910390fd5b806002819055505050611dfc60008483856118ce565b505050565b60006001821460e11b9050919050565b828054611e1d90612a2e565b90600052602060002090601f016020900481019282611e3f5760008555611e86565b82601f10611e5857805160ff1916838001178555611e86565b82800160010185558215611e86579182015b82811115611e85578251825591602001919060010190611e6a565b5b509050611e939190611e97565b5090565b5b80821115611eb0576000816000905550600101611e98565b5090565b6000611ec7611ec2846127dd565b6127b8565b905082815260208101848484011115611edf57600080fd5b611eea8482856129ec565b509392505050565b6000611f05611f008461280e565b6127b8565b905082815260208101848484011115611f1d57600080fd5b611f288482856129ec565b509392505050565b600081359050611f3f81612d42565b92915050565b600081359050611f5481612d59565b92915050565b600081359050611f6981612d70565b92915050565b600081519050611f7e81612d70565b92915050565b600082601f830112611f9557600080fd5b8135611fa5848260208601611eb4565b91505092915050565b600082601f830112611fbf57600080fd5b8135611fcf848260208601611ef2565b91505092915050565b600081359050611fe781612d87565b92915050565b600081359050611ffc81612d9e565b92915050565b60006020828403121561201457600080fd5b600061202284828501611f30565b91505092915050565b6000806040838503121561203e57600080fd5b600061204c85828601611f30565b925050602061205d85828601611f30565b9150509250929050565b60008060006060848603121561207c57600080fd5b600061208a86828701611f30565b935050602061209b86828701611f30565b92505060406120ac86828701611fd8565b9150509250925092565b600080600080608085870312156120cc57600080fd5b60006120da87828801611f30565b94505060206120eb87828801611f30565b93505060406120fc87828801611fd8565b925050606085013567ffffffffffffffff81111561211957600080fd5b61212587828801611f84565b91505092959194509250565b6000806040838503121561214457600080fd5b600061215285828601611f30565b925050602061216385828601611f45565b9150509250929050565b6000806040838503121561218057600080fd5b600061218e85828601611f30565b925050602061219f85828601611fd8565b9150509250929050565b6000806000606084860312156121be57600080fd5b60006121cc86828701611f30565b93505060206121dd86828701611fed565b92505060406121ee86828701611fed565b9150509250925092565b60006020828403121561220a57600080fd5b600061221884828501611f5a565b91505092915050565b60006020828403121561223357600080fd5b600061224184828501611f6f565b91505092915050565b60006020828403121561225c57600080fd5b600082013567ffffffffffffffff81111561227657600080fd5b61228284828501611fae565b91505092915050565b60006020828403121561229d57600080fd5b60006122ab84828501611fd8565b91505092915050565b6000602082840312156122c657600080fd5b60006122d484828501611fed565b91505092915050565b60006122e98383612573565b60208301905092915050565b6122fe8161296b565b82525050565b600061230f8261284f565b612319818561287d565b93506123248361283f565b8060005b8381101561235557815161233c88826122dd565b975061234783612870565b925050600181019050612328565b5085935050505092915050565b61236b8161297d565b82525050565b600061237c8261285a565b612386818561288e565b93506123968185602086016129fb565b61239f81612b48565b840191505092915050565b60006123b582612865565b6123bf81856128aa565b93506123cf8185602086016129fb565b6123d881612b48565b840191505092915050565b60006123f06017836128aa565b91506123fb82612b59565b602082019050919050565b6000612413601f836128aa565b915061241e82612b82565b602082019050919050565b60006124366026836128aa565b915061244182612bab565b604082019050919050565b60006124596015836128aa565b915061246482612bfa565b602082019050919050565b600061247c600f836128aa565b915061248782612c23565b602082019050919050565b600061249f6018836128aa565b91506124aa82612c4c565b602082019050919050565b60006124c26010836128aa565b91506124cd82612c75565b602082019050919050565b60006124e56025836128aa565b91506124f082612c9e565b604082019050919050565b60006125086020836128aa565b915061251382612ced565b602082019050919050565b600061252b60008361289f565b915061253682612d16565b600082019050919050565b600061254e601f836128aa565b915061255982612d19565b602082019050919050565b61256d816129d5565b82525050565b61257c816129df565b82525050565b600061258d8261251e565b9150819050919050565b60006020820190506125ac60008301846122f5565b92915050565b60006080820190506125c760008301876122f5565b6125d460208301866122f5565b6125e16040830185612564565b81810360608301526125f38184612371565b905095945050505050565b600060208201905081810360008301526126188184612304565b905092915050565b60006020820190506126356000830184612362565b92915050565b6000602082019050818103600083015261265581846123aa565b905092915050565b60006020820190508181036000830152612676816123e3565b9050919050565b6000602082019050818103600083015261269681612406565b9050919050565b600060208201905081810360008301526126b681612429565b9050919050565b600060208201905081810360008301526126d68161244c565b9050919050565b600060208201905081810360008301526126f68161246f565b9050919050565b6000602082019050818103600083015261271681612492565b9050919050565b60006020820190508181036000830152612736816124b5565b9050919050565b60006020820190508181036000830152612756816124d8565b9050919050565b60006020820190508181036000830152612776816124fb565b9050919050565b6000602082019050818103600083015261279681612541565b9050919050565b60006020820190506127b26000830184612564565b92915050565b60006127c26127d3565b90506127ce8282612a60565b919050565b6000604051905090565b600067ffffffffffffffff8211156127f8576127f7612b19565b5b61280182612b48565b9050602081019050919050565b600067ffffffffffffffff82111561282957612828612b19565b5b61283282612b48565b9050602081019050919050565b6000819050602082019050919050565b600081519050919050565b600081519050919050565b600081519050919050565b6000602082019050919050565b600082825260208201905092915050565b600082825260208201905092915050565b600081905092915050565b600082825260208201905092915050565b60006128c6826129d5565b91506128d1836129d5565b9250827fffffffffffffffffffffffffffffffffffffffffffffffffffffffffffffffff0382111561290657612905612abb565b5b828201905092915050565b600061291c826129d5565b9150612927836129d5565b9250817fffffffffffffffffffffffffffffffffffffffffffffffffffffffffffffffff04831182151516156129605761295f612abb565b5b828202905092915050565b6000612976826129b5565b9050919050565b60008115159050919050565b60007fffffffff0000000000000000000000000000000000000000000000000000000082169050919050565b600073ffffffffffffffffffffffffffffffffffffffff82169050919050565b6000819050919050565b600060ff82169050919050565b82818337600083830152505050565b60005b83811015612a195780820151818401526020810190506129fe565b83811115612a28576000848401525b50505050565b60006002820490506001821680612a4657607f821691505b60208210811415612a5a57612a59612aea565b5b50919050565b612a6982612b48565b810181811067ffffffffffffffff82111715612a8857612a87612b19565b5b80604052505050565b6000612a9c826129df565b915060ff821415612ab057612aaf612abb565b5b600182019050919050565b7f4e487b7100000000000000000000000000000000000000000000000000000000600052601160045260246000fd5b7f4e487b7100000000000000000000000000000000000000000000000000000000600052602260045260246000fd5b7f4e487b7100000000000000000000000000000000000000000000000000000000600052604160045260246000fd5b6000601f19601f8301169050919050565b7f466f756e646572207472616e73666572206661696c6564000000000000000000600082015250565b7f57696c6c206578636565642074686520746f74616c206e6674206c696d697400600082015250565b7f4f776e61626c653a206e6577206f776e657220697320746865207a65726f206160008201527f6464726573730000000000000000000000000000000000000000000000000000602082015250565b7f4e6f20656e6f7567682062616c616e6365207965740000000000000000000000600082015250565b7f546f6b656e206e6f7420666f756e640000000000000000000000000000000000600082015250565b7f436f6e747261637420686173206265656e207061757365640000000000000000600082015250565b7f496e73756666696369656e742066656500000000000000000000000000000000600082015250565b7f5468652063616c6c65722069732066726f6d20646966666572656e7420636f6e60008201527f7472616374000000000000000000000000000000000000000000000000000000602082015250565b7f4f776e61626c653a2063616c6c6572206973206e6f7420746865206f776e6572600082015250565b50565b7f5265656e7472616e637947756172643a207265656e7472616e742063616c6c00600082015250565b612d4b8161296b565b8114612d5657600080fd5b50565b612d628161297d565b8114612d6d57600080fd5b50565b612d7981612989565b8114612d8457600080fd5b50565b612d90816129d5565b8114612d9b57600080fd5b50565b612da7816129df565b8114612db257600080fd5b5056fe697066733a2f2f516d6434456661786f676a436958485a63516f7a5659753165466b31393848386a5876586166376970325a354e63a2646970667358221220be9a579689b5e753ef24d6fc7d0b5458cd81664e6d6e54d36c673f0594dece2e64736f6c63430008040033",
  "linkReferences": {},
  "deployedLinkReferences": {}
}